{
  "_format": "hh-sol-artifact-1",
  "contractName": "Immutable",
  "sourceName": "contracts/Immutable.sol",
  "abi": [
    {
      "anonymous": false,
      "inputs": [
        {
          "indexed": true,
          "internalType": "bytes32",
          "name": "txHash",
          "type": "bytes32"
        },
        {
          "indexed": true,
          "internalType": "address",
          "name": "complainant",
          "type": "address"
        }
      ],
      "name": "ComplaintFiled",
      "type": "event"
    },
    {
      "inputs": [
        {
          "internalType": "bytes32",
          "name": "",
          "type": "bytes32"
        }
      ],
      "name": "complaints",
      "outputs": [
        {
          "internalType": "address",
          "name": "complainant",
          "type": "address"
        },
        {
          "internalType": "string",
          "name": "name",
          "type": "string"
        },
        {
          "internalType": "string",
          "name": "contact",
          "type": "string"
        },
        {
          "internalType": "string",
          "name": "location",
          "type": "string"
        },
        {
          "internalType": "uint256",
          "name": "timestamp",
          "type": "uint256"
        },
        {
          "internalType": "string",
          "name": "description",
          "type": "string"
        },
        {
          "internalType": "string",
          "name": "evidenceId",
          "type": "string"
        }
      ],
      "stateMutability": "view",
      "type": "function"
    },
    {
      "inputs": [
        {
          "internalType": "bytes32",
          "name": "_txHash",
          "type": "bytes32"
        }
      ],
      "name": "fetchComplaint",
      "outputs": [
        {
          "internalType": "address",
          "name": "complainant",
          "type": "address"
        },
        {
          "internalType": "string",
          "name": "name",
          "type": "string"
        },
        {
          "internalType": "string",
          "name": "contact",
          "type": "string"
        },
        {
          "internalType": "string",
          "name": "location",
          "type": "string"
        },
        {
          "internalType": "uint256",
          "name": "timestamp",
          "type": "uint256"
        },
        {
          "internalType": "string",
          "name": "description",
          "type": "string"
        },
        {
          "internalType": "string",
          "name": "evidenceId",
          "type": "string"
        }
      ],
      "stateMutability": "view",
      "type": "function"
    },
    {
      "inputs": [
        {
          "internalType": "string",
          "name": "_name",
          "type": "string"
        },
        {
          "internalType": "string",
          "name": "_contact",
          "type": "string"
        },
        {
          "internalType": "string",
          "name": "_location",
          "type": "string"
        },
        {
          "internalType": "string",
          "name": "_description",
          "type": "string"
        },
        {
          "internalType": "string",
          "name": "_evidenceId",
          "type": "string"
        }
      ],
      "name": "fileComplaint",
      "outputs": [],
      "stateMutability": "nonpayable",
      "type": "function"
    }
  ],
  "bytecode": "0x608060405234801561001057600080fd5b50610c27806100206000396000f3fe608060405234801561001057600080fd5b50600436106100415760003560e01c80631c2e7e5314610046578063bdde8d4d1461005b578063e307bf2a1461008a575b600080fd5b6100596100543660046109f8565b61009d565b005b61006e610069366004610aca565b6101fe565b6040516100819796959493929190610b30565b60405180910390f35b61006e610098366004610aca565b6105cf565b6040516bffffffffffffffffffffffff193360601b16602082015242603482015260009060540160408051808303601f19018152828252805160209182012060e0840183523384528184018a81528484018a90526060850189905242608086015260a0850188905260c08501879052600082815280845293909320845181546001600160a01b0319166001600160a01b039091161781559251805191955061014c9260018501929101906108bc565b50604082015180516101689160028401916020909101906108bc565b50606082015180516101849160038401916020909101906108bc565b506080820151600482015560a082015180516101aa9160058401916020909101906108bc565b5060c082015180516101c69160068401916020909101906108bc565b505060405133915082907ff06a0a2af0fcbd54e9ae32fe4ec29fb034ba4ac2e9a8d4668b82914a086e2e2590600090a3505050505050565b600081815260208181526040808320815160e0810190925280546001600160a01b0316825260018101805460609485948594889486948594879493929084019161024790610bb6565b80601f016020809104026020016040519081016040528092919081815260200182805461027390610bb6565b80156102c05780601f10610295576101008083540402835291602001916102c0565b820191906000526020600020905b8154815290600101906020018083116102a357829003601f168201915b505050505081526020016002820180546102d990610bb6565b80601f016020809104026020016040519081016040528092919081815260200182805461030590610bb6565b80156103525780601f1061032757610100808354040283529160200191610352565b820191906000526020600020905b81548152906001019060200180831161033557829003601f168201915b5050505050815260200160038201805461036b90610bb6565b80601f016020809104026020016040519081016040528092919081815260200182805461039790610bb6565b80156103e45780601f106103b9576101008083540402835291602001916103e4565b820191906000526020600020905b8154815290600101906020018083116103c757829003601f168201915b505050505081526020016004820154815260200160058201805461040790610bb6565b80601f016020809104026020016040519081016040528092919081815260200182805461043390610bb6565b80156104805780601f1061045557610100808354040283529160200191610480565b820191906000526020600020905b81548152906001019060200180831161046357829003601f168201915b5050505050815260200160068201805461049990610bb6565b80601f01602080910402602001604051908101604052809291908181526020018280546104c590610bb6565b80156105125780601f106104e757610100808354040283529160200191610512565b820191906000526020600020905b8154815290600101906020018083116104f557829003601f168201915b5050509190925250508151919250506001600160a01b03166105985760405162461bcd60e51b815260206004820152603560248201527f436f6d706c61696e74206e6f7420666f756e6420666f72207468652070726f766044820152740d2c8cac840e8e4c2dce6c2c6e8d2dedc40d0c2e6d605b1b606482015260840160405180910390fd5b8051602082015160408301516060840151608085015160a086015160c090960151949e939d50919b50995097509195509350915050565b600060208190529081526040902080546001820180546001600160a01b0390921692916105fb90610bb6565b80601f016020809104026020016040519081016040528092919081815260200182805461062790610bb6565b80156106745780601f1061064957610100808354040283529160200191610674565b820191906000526020600020905b81548152906001019060200180831161065757829003601f168201915b50505050509080600201805461068990610bb6565b80601f01602080910402602001604051908101604052809291908181526020018280546106b590610bb6565b80156107025780601f106106d757610100808354040283529160200191610702565b820191906000526020600020905b8154815290600101906020018083116106e557829003601f168201915b50505050509080600301805461071790610bb6565b80601f016020809104026020016040519081016040528092919081815260200182805461074390610bb6565b80156107905780601f1061076557610100808354040283529160200191610790565b820191906000526020600020905b81548152906001019060200180831161077357829003601f168201915b5050505050908060040154908060050180546107ab90610bb6565b80601f01602080910402602001604051908101604052809291908181526020018280546107d790610bb6565b80156108245780601f106107f957610100808354040283529160200191610824565b820191906000526020600020905b81548152906001019060200180831161080757829003601f168201915b50505050509080600601805461083990610bb6565b80601f016020809104026020016040519081016040528092919081815260200182805461086590610bb6565b80156108b25780601f10610887576101008083540402835291602001916108b2565b820191906000526020600020905b81548152906001019060200180831161089557829003601f168201915b5050505050905087565b8280546108c890610bb6565b90600052602060002090601f0160209004810192826108ea5760008555610930565b82601f1061090357805160ff1916838001178555610930565b82800160010185558215610930579182015b82811115610930578251825591602001919060010190610915565b5061093c929150610940565b5090565b5b8082111561093c5760008155600101610941565b634e487b7160e01b600052604160045260246000fd5b600082601f83011261097c57600080fd5b813567ffffffffffffffff8082111561099757610997610955565b604051601f8301601f19908116603f011681019082821181831017156109bf576109bf610955565b816040528381528660208588010111156109d857600080fd5b836020870160208301376000602085830101528094505050505092915050565b600080600080600060a08688031215610a1057600080fd5b853567ffffffffffffffff80821115610a2857600080fd5b610a3489838a0161096b565b96506020880135915080821115610a4a57600080fd5b610a5689838a0161096b565b95506040880135915080821115610a6c57600080fd5b610a7889838a0161096b565b94506060880135915080821115610a8e57600080fd5b610a9a89838a0161096b565b93506080880135915080821115610ab057600080fd5b50610abd8882890161096b565b9150509295509295909350565b600060208284031215610adc57600080fd5b5035919050565b6000815180845260005b81811015610b0957602081850181015186830182015201610aed565b81811115610b1b576000602083870101525b50601f01601f19169290920160200192915050565b6001600160a01b038816815260e060208201819052600090610b5490830189610ae3565b8281036040840152610b668189610ae3565b90508281036060840152610b7a8188610ae3565b905085608084015282810360a0840152610b948186610ae3565b905082810360c0840152610ba88185610ae3565b9a9950505050505050505050565b600181811c90821680610bca57607f821691505b60208210811415610beb57634e487b7160e01b600052602260045260246000fd5b5091905056fea2646970667358221220bfc812c4b95a7f236d1576a6d69c8a3a2e3c66b35f660f8e0d4e006ba96ec3cc64736f6c63430008090033",
  "linkReferences": {},
  "deployedLinkReferences": {}
}